:020000021000EC
:10F0000000000120111F0200391F02003B1F0200F7
:10F010003D1F02003F1F0200411F020000000000D0
:10F02000000000000000000000000000431F02007C
:10F03000451F020000000000471F0200491F020098
:10F04000C50202004B1F0200650C02004B1F0200AC
:10F050004B1F02004B1F0200710702004B1F0200F2
:10F060004B1F02004B1F02004B1F02004B1F0200F0
:10F070004B1F02004B1F02004B1F02004B1F0200E0
:10F080004B1F0200B1F701004B1F02004B1F020093
:10F0900075F801004B1F02002D2602004B1F0200D5
:10F0A0004B1F02004B1F02004B1F02004B1F0200B0
:10F0B0004B1F02004B1F0200000000000000000078
:10F0C0004B1F02004B1F02004B1F02004B1F020090
:10F0D0004B1F02004B1F02004B1F020000000000EC
:10F0E0000000000000000000000000000000000020
:10F0F0000000000000000000000000000000000010
:10F1000000000000000000000000000000000000FF
:10F1100000000000000000000000000000000000EF
:10F4000010B5054C237833B9044B13B10448AFF35E
:10F4100000800123237010BDA42100200000000003
:10F4200020270200084B10B51BB108490848AFF36C
:10F4300000800848036803B910BD074B002BFBD0C0
:10F44000BDE81040184700BF00000000A8210020C0
:10F4500020270200A021002000000000154B002BF7
:10F4600008BF134B9D46A3F5803A00218B460F46FB
:10F470001348144A121A00F065F80F4B002B00D005
:10F4800098470E4B002B00D0984700200021040025
:10F490000D000D48002802D00C48AFF3008000F0AA
:10F4A0002BF82000290001F057FE00F011F800BFF2
:10F4B0000000080000000120000000000000000023
:10F4C000A421002000240020000000000000000013
:10F4D00008B5074B044613B10021AFF30080054B7C
:10F4E0001868836A03B19847204600F033F800BFDC
:10F4F00000000000EC26020070B50E4B0E4CE41A22
:10F50000A41000251E46A54204D056F82530984781
:10F510000135F8E703F0DEF8084C094BE41AA410B3
:10F5200000251E46A54204D056F8253098470135DF
:10F53000F8E770BD98210020982100209C21002030
:10F540009821002002440346934202D003F8011B95
:10F55000FAE77047FEE700BF2DE9F84F244B1A7811
:10F560008AB3DFF890B0DFF89090DFF890A0002425
:10F57000012703E00134E4B2944224D226B2D9F840
:10F580000050DBF8003015F8360007FA00FE1EEADE
:10F59000030F05EBC608EDD0164A23EA0E031360ED
:10F5A00001F0DCF815F83650DAF8003007FA05F605
:10F5B000334000FA05F6B34207D00D4B01341A78F8
:10F5C000E4B29442DAD3BDE8F88FD8F80430002BC7
:10F5D000F3D098F80110A1F10101B1FA81F14909C4
:10F5E000091AB1FA81F1490928469847E5E700BFB1
:10F5F000C8210020F0210020C4210020EC2100209F
:10F6000070B50646114800F0A9FD40B9104D01241F
:10F610002B68B4401C4203D023EA04042C6070BD64
:10F62000304601F09BF80B4A136860B123432E6803
:10F630000949136034432C60044809680022BDE87E
:10F64000704000F033BD23EA0403F0E7CC21002032
:10F65000F0210020EC210020C0210020042A01D844
:10F66000072070472DE9F04182B0884605461746CD
:10F6700000F010FF002834D01C4C1D481D491E4AC4
:10F680001E4B2560002608F1FF340F6080F80080D3
:10F6900016601E60E4B20327B8F1000F03D11AE030
:10F6A000DBB2C4B11C4623B205EBC30215F833002C
:10F6B0009378134A8DF8053001A98DF804708DF800
:10F6C00006608DF8076000F0EFFE631E0028E7D0AB
:10F6D00002B0BDE8F0810B4A0B48002100F0D4FCD9
:10F6E000F6E700F095FE0028C6D0F1E7C42100201F
:10F6F000C8210020C0210020EC210020F0210020A2
:10F7000001F6010059F50100F026020070B5084D20
:10F710002B785BB1074E00243368012113F83400C5
:10F7200000F08AFF2B780134A342F5D8002070BD89
:10F73000C8210020C421002070B5094D2B7853B199
:10F74000084E0024336813F8340000F0D7FF2B78FC
:10F750000134A342F6D80448BDE8704000F0FEBC76
:10F76000C8210020C4210020CC21002000B585B094
:10F7700000230390194601AA44F20100ADF80430B9
:10F78000029300F003F805B05DF804FBBFF34F8F60
:10F790000549064BCA6802F4E0621343CB60BFF32D
:10F7A0004F8F00BFFDE700BF00ED00E00400FA0549
:10F7B0002DE9F843274A284B0025C2F84051C2F8EA
:10F7C0004451C2F84851C2F84C51C2F80051C2F835
:10F7D00004511B681BB32149D2F804250C68204F43
:10F7E000141B1A6824F07F44A242A84609D8197C49
:10F7F000DE69A41A1544A1B91EB133461A68A242A3
:10F80000F5D9184B18491A780B789A421BD017492A
:10F81000174A41F823504FF48013C2F80031BDE875
:10F82000F883D3F8149083F810803A689B694846AF
:10F8300019462AB190470028DED0FFF797FFDBE793
:10F840001846C847D8E7531CDBB2022B08BF002379
:10F850000B70DCE700100140F8210020F4210020AB
:10F86000FC21002000220020012200200C22002088
:10F8700000E100E02DE9F04FA44AA549137809788A
:10F88000A44889B000680090994200F0EB800133F1
:10F89000DBB2022B08BF002313709F4A52F823608B
:10F8A000009B9C4A334423F07F4313604FF0010ECA
:10F8B0009A4B079693F800A0994BCDF818A0D3F86F
:10F8C0000090964B5B7801931D46944BD3F804B09F
:10F8D0009B7802931C46934B1B7804938D4B002717
:10F8E0001B68039351464A464B460597BC4638462B
:10F8F0002646B846A9421AD001EB410401311BF853
:10F900003470C9B2B14208BF0021022F0BEBC4040E
:10F9100000F08380032FEDD1002BEBD0DA6918744F
:10F920001346002AFAD1A9424FF0010CE4D1DDF8C8
:10F9300018A0079E4746BCF1000F40F0A380059A2F
:10F9400012B1744A03991160002F40F09C82BEF1FD
:10F95000000F40F0C681B9EB030218BF01220792E5
:10F96000059375461E466B4ACDF810B0D2F800C01C
:10F970006B4ADFF8B891D646D2F800A0694A002356
:10F98000127800931F4606924FF001089B463DB344
:10F990006A68A9682C46ED69CCEB020323F07F432B
:10F9A0004B4572D80B4423606760A76084F81080D1
:10F9B000E761002E00F08B80316899427ED230469C
:10F9C00003E01168994269D21046C2695B1A002AA5
:10F9D000F7D12360E2613346C4611E46002DD7D1C2
:10F9E000019B9E4500F0A4800EEB4E03049911F894
:10F9F0003320039210460EF1010E029A5FFA8EFE3A
:10FA0000724508BF4FF0000E012801EBC30364D01C
:10FA10003346012200921E46E0E76468002B3FF463
:10FA200069AF9C429A4601D115E0BA46DAF81C70DB
:10FA3000002F3FF45FAFBC42F7D1BA450CD0FC6950
:10FA40003F68CAF81C40002C3FF454AF23683B4485
:10FA5000236013464EE71F46DA6932B113464FF072
:10FA6000010CECE70026B64622E72F4B4FF00108C9
:10FA7000C3F80880C44613460392CDF81080CDF831
:10FA80001480DCE726490A6059E7C2EB0C0222F039
:10FA90007F428A4209D28B1A236085E7C91A116016
:10FAA0002360E2613346C46197E727606760A7601F
:10FAB00084F81080E76156B131680023CB1A3360B7
:10FAC0002346E661A2464FF0010B1E4686E7234619
:10FAD000A2464FF0010B1E4680E75C68227C009234
:10FAE00082B99A686260D968A1601869E0605B6950
:10FAF000A361069B002B00F0F180009A62600093E6
:10FB00002A4649E733461E4668E700BF0022002028
:10FB100001220020F42100200C22002004220020D9
:10FB2000F82100200222002000100140FEFF7F008B
:10FB3000009B5A46002B40F0AE8112B1824BC3F8B5
:10FB400000A0059BB34200F0BF80002E00F00A81A8
:10FB50007E497F4CD1F8040525783368CCEB000250
:10FB600022F07F420332002D50D17A4DDFF8ECE1D4
:10FB7000794F4FF48036C1F84463C1F804634FF401
:10FB80000036C5F880612E6001250D60DEF800604A
:10FB90002F2100BF00BF00BF00BF00BF00BF00BFDC
:10FBA00000BFBE422FD000BF00BF00BF00BF00BFDC
:10FBB00000BF00BF00BF00BF00BF00BF00BF00BF4D
:10FBC00000BF00BF00BF00BF00BF00BF00BF00BF3D
:10FBD00000BF00BF00BF00BF00BF00BF00BF00BF2D
:10FBE00000BF00BF00BF00BF00BF00BF00BF00BF1D
:10FBF00000BF00BF00BF00BF00BF00BF00BF00BF0D
:10FC000000BF00BF00BF0139C3D1257093422CBF94
:10FC10009C4494444D492CF07F43C1F84035D1F8C1
:10FC20000425121A1B1A22F07F4223F07F4303326D
:10FC30009A424DD9D1F80435484AC1F84035126886
:10FC400045492F2300BF00BF00BF00BF00BF00BF5A
:10FC500000BF00BF8A422FD000BF00BF00BF00BF5F
:10FC600000BF00BF00BF00BF00BF00BF00BF00BF9C
:10FC700000BF00BF00BF00BF00BF00BF00BF00BF8C
:10FC800000BF00BF00BF00BF00BF00BF00BF00BF7C
:10FC900000BF00BF00BF00BF00BF00BF00BF00BF6C
:10FCA00000BF00BF00BF00BF00BF00BF00BF00BF5C
:10FCB00000BF00BF00BF00BF013BC3D1254B4FF4C5
:10FCC0000032C3F8002103E0079B002B7FF43DAF17
:10FCD000234A0023137009B0BDE8F08F039B009303
:10FCE0005AE6194ADDF800C01768002005460146AB
:10FCF0000446ABB11A68B2421BD8D8681C60B61A69
:10FD00001144DA6938B10CEB010727F07F47DD6158
:10FD100098605F601D46134617467046002BE9D178
:10FD2000002840F0BC800023059301230793059E23
:10FD300019E6002840F0AC80921B05931A6001235D
:10FD40000793059E0FE600BFF82100200010014038
:10FD50001422002000E100E00024F400942100209F
:10FD6000022200204F4A504B504D51484FF48031F1
:10FD70004FF400370124C3F88070C2F848132F23D2
:10FD8000C2F80813546029681D4600BF00BF00BFB9
:10FD900000BF00BF00BF00BF00BF81422FD000BF27
:10FDA00000BF00BF00BF00BF00BF00BF00BF00BF5B
:10FDB00000BF00BF00BF00BF00BF00BF00BF00BF4B
:10FDC00000BF00BF00BF00BF00BF00BF00BF00BF3B
:10FDD00000BF00BF00BF00BF00BF00BF00BF00BF2B
:10FDE00000BF00BF00BF00BF00BF00BF00BF00BF1B
:10FDF00000BF00BF00BF00BF00BF00BF00BF013D8C
:10FE0000C3D194602B4A166000BF00BF00BF00BF83
:10FE100000BF00BF00BF00BF81422FD000BF00BFA6
:10FE200000BF00BF00BF00BF00BF00BF00BF00BFDA
:10FE300000BF00BF00BF00BF00BF00BF00BF00BFCA
:10FE400000BF00BF00BF00BF00BF00BF00BF00BFBA
:10FE500000BF00BF00BF00BF00BF00BF00BF00BFAA
:10FE600000BF00BF00BF00BF00BF00BF00BF00BF9A
:10FE700000BF00BF00BF00BF00BF00BF013BC3D138
:10FE80000D4B1E7024E70D4A9DF8101011705EE5B1
:10FE90000B490F6050E70B4B83F800E04DE6084B31
:10FEA0001F6040E70010014000E100E094210020C5
:10FEB0000024F400F421002014220020022200205B
:10FEC000F8210020042200202DE9F04712F003045D
:10FED00002D00720BDE8F087002AFAD05F4D604EBF
:10FEE000DFF88891DFF888C14FF4803E4FF4003787
:10FEF0004FF00108C6F88070C5F848E32F27C5F811
:10FF000008E3C5F80480D9F800E0B94600BF00BF97
:10FF100000BF00BF00BF00BF00BF00BFE6452FD03D
:10FF200000BF00BF00BF00BF00BF00BF00BF00BFD9
:10FF300000BF00BF00BF00BF00BF00BF00BF00BFC9
:10FF400000BF00BF00BF00BF00BF00BF00BF00BFB9
:10FF500000BF00BF00BF00BF00BF00BF00BF00BFA9
:10FF600000BF00BF00BF00BF00BF00BF00BF00BF99
:10FF700000BF00BF00BF00BF00BF00BF00BF00BF89
:10FF8000B9F10109C2D1C5F8088000BF00BF00BFA8
:10FF900000BF00BF00BF00BF00BFE6452FD000BFBD
:10FFA00000BF00BF00BF00BF00BF00BF00BF00BF59
:10FFB00000BF00BF00BF00BF00BF00BF00BF00BF49
:10FFC00000BF00BF00BF00BF00BF00BF00BF00BF39
:10FFD00000BF00BF00BF00BF00BF00BF00BF00BF29
:10FFE00000BF00BF00BF00BF00BF00BF00BF00BF19
:10FFF00000BF00BF00BF00BF00BF00BF00BF013F88
:020000022000DC
:10000000C3D1DFF870E0DFF870A0164FDFF86C9016
:10001000DFF86C80DFF86CC08EF80040CAF8003062
:100020004FF4801EE023B9703C707C70C9F800402A
:1000300088F800408CF800400B49C6F880E186F84B
:100040001433C6F800E0C5F8080586F81133D5F872
:1000500004350B607A602046BDE8F087001001404F
:1000600000E100E004220020F4210020942100207F
:100070000024F40014220020FC210020F82100209C
:100080000022002001220020074B5B6823B12AB127
:1000900020B10368187C18B108207047072070470A
:1000A00059745A61704700BF042200202DE9F043C3
:1000B000274C636883B033B128B1042907D80720DF
:1000C00003B0BDE8F083082003B0BDE8F0834369C6
:1000D000002BF8D0054602A86B7C0026012B00F807
:1000E000016D0CBF8946B14690460F4600F074F88A
:1000F0006378A07821785A1CD2B2904208BF324669
:1001000091421FD003EB43036068DB00C11819D094
:100110004FF0010E00F803E00E4B4D60D3F80435AC
:100120008B609DF80700CF60C1F81090C1F8148073
:10013000627000F079F8084B4FF480123046C3F833
:100140000021C1E79DF8070000F06EF80420BBE72E
:10015000042200200010014000E100E0F0B51C4E38
:10016000736883B053B348B343693BB3054602A8F1
:10017000002400F8014D2C7400F02EF87378B0784C
:1001800031785A1CD2B2904208BF2246914218D010
:1001900003EB43037168DB00CF1812D00220C85470
:1001A0007D609DF80700727000F03EF8094B4FF437
:1001B00080122046C3F8002103B0F0BD082003B030
:1001C000F0BD9DF8070000F02FF80420F7E700BF0E
:1001D0000422002000E100E0F0B4EFF3108472B6D6
:1001E0000E4B9A68B2B90E4901259D60D1F8807016
:1001F0000C4D2E463D401D60C1F88060D1F8845002
:100200005D604FF0FF33C1F88430027004B962B60C
:10021000F0BC704701230370F8E700BFF42300200F
:1002200000E100E0FC06FFBC094B9A6872B168B9B6
:1002300010B4EFF3108272B606491C680C605C685B
:100240004C60986002B962B65DF8044B704700BF1D
:10025000F423002000E100E0044B195C4FF0A042C1
:1002600001238B40C2F80C35704700BFF426020012
:10027000044B195C4FF0A04201238B40C2F80835B3
:10028000704700BFF426020030B44FF0A0430322B1
:100290004FF400354FF480244FF400204FF48011C8
:1002A000C3F84427C3F84827C3F84C27C3F850279E
:1002B000C3F80855C3F80845C3F80805C3F808157E
:1002C00030BC704710B51A4B1A6882B0A2B1002238
:1002D0001A601B6800934FF080430122154C00996F
:1002E000C3F80823A368627033B10CCB0020A2606E
:1002F0009847A368002BF8D10F4B1A68AAB10022C7
:100300001A601B6801934FF080430222094C019947
:10031000C3F8082323690122A27033B10CCB01205A
:10032000226198472369002BF8D102B010BD00BFAD
:1003300000010040182200200401004058B910B507
:10034000054CA36833B10CCB0020A2609847A3688A
:10035000002BF8D110BD70471822002010B582B0D4
:1003600002A80023144C00F8013DFFF735FF237865
:1003700093B9124A6360E3601068A36010F0010053
:10038000236114D002F0F8F820B94FF08043012225
:10039000C3F8182501232370E3689DF80700013393
:1003A0000122E360A270FFF73FFF02B010BD0721FA
:1003B00000F006F8E6E700BF1822002000E100E0A8
:1003C000002810B418DB00F1604303F561434901D4
:1003D000C9B283F80013C3B24009800000F1604045
:1003E00000F5614003F01F0201239340C0F8803103
:1003F00003605DF8044B7047C3B2044A03F00F0476
:1004000049012244C9B21176E6E700BFFCEC00E0E6
:1004100030B51D4C94F8545083B015B1082003B08A
:1004200030BD4FF0FF33FF220721062023636363B3
:10043000A363E36323646364A364E364236063608E
:10044000A360E36023616361A361E361236284F8D5
:1004500050306362A36284F85230E36284F8533010
:1004600084F85120FFF7ACFF084B094A1D601B6858
:10047000019301984FF000430121284684F854105D
:10048000C2F8043303B030BD2C2200207C61004050
:1004900000600040034B93F85400003018BF012067
:1004A000704700BF2C220020F0B5624C251895F94A
:1004B0003030002B01DB0820F0BD91F803E09446BA
:1004C000BEF1000F56D02368013300F0A380002551
:1004D00008266B1C574F54F82320013251D0AB1C17
:1004E0009E4245D957F8232001324AD0EB1C9E4248
:1004F0003ED957F82320013243D02B1D9E4237D9D5
:1005000057F8232001323CD06B1D9E4230D957F85A
:100510002370013735D0AB1D9E4229D954F82320D2
:10052000444F01322DD0EB1D9E4221D957F8232094
:10053000013226D005F108039E4219D957F823202D
:1005400001321ED005F109039E4211D957F823202C
:10055000013216D005F10A039E4209D957F82370DB
:1005600001370ED00B35AE4202D9E36A013307D012
:100570000420F0BD236A013353D008250C26A8E7D8
:100580000B2326185DB244F823C086F83050BEF124
:10059000000F02D1234483F848008B78A3B94A782E
:1005A0004FF0A04600F5E073920046F82320CB7888
:1005B000A3B9083D2C44097894F8502042EA8112EE
:1005C00084F850201846F0BD830003F1A043D3F80F
:1005D000002722F00202C3F80027E8E7AB0003F18E
:1005E000804303F5C0430A78D3F8101521F447314E
:1005F00021F44071C3F810151204000202F44031D6
:10060000D3F8104500F4F8520A432243C3F81025EA
:100610000020F0BD002385F83030C4F800C01D462E
:10062000BBE7082685F830603346C4F820C035465D
:10063000B0E700BF2C220020F0B42E4D2E1882B05F
:1006400096F93030072B1CDD2B4493F848309B097A
:10065000032B41D0012B14BF4FF440334FF4003330
:10066000800000F1A040D0F8002722F44032C0F80A
:100670000027D0F800271343C0F8003702B0F0BCC1
:100680007047DAB2072AF9D8980000F1804000F5E7
:10069000C04003F140029200D0F8104592B202F13E
:1006A0008042002744F0010402F5C042C0F8104522
:1006B0000197019817600029E0D096F9302055F88D
:1006C0002220002ADAD001220B4902FA03F3C1F8F2
:1006D000043302B0F0BC70474FF0A043D3F810359C
:1006E000C34013F0010F0CBF4FF400334FF44033FD
:1006F000B6E700BF2C22002000600040154B0344E9
:1007000093F93030072B17DCDAB2072A13D810B46C
:100710009A0002F1804202F5C0420F4CD2F8100557
:10072000012120F0010001FA03F3C2F81005C4F81A
:1007300008335DF8044B7047800000F1A040D0F80A
:10074000003723F44033C0F80037D0F80037C0F842
:10075000003770472C220020006000404FF0A0437B
:10076000D3F8103523FA00F000F00100704700BF05
:100770002DE9F04387B00026C94B01961A68012A7B
:1007800000F00482C74B1A68012A00F0F181C64BC1
:100790001A68012A00F0DE81C44B1A68012A00F0B1
:1007A000CB81C34B1A68012A00F0B881C14B1A688B
:1007B000012A00F0A581C04B1A68012A00F092813D
:1007C000BE4B1A68012A00F07F81BD4B1A68012ACE
:1007D00000F0598116F0FF0F1AD0BA4F01250024FE
:1007E000A30003F180432E4203F5C0434FEA4505C1
:1007F0000BD0D3F8100557F82420D3F81015C0F308
:100800000420C1F3014102B190470134082CE7D123
:10081000002E02DB07B0BDE8F083AA4C00224FF0A7
:10082000FF3327460292039301260DF1080894F93D
:1008300050104D1C2DD0C9B221F0C00006AB4FEABC
:10084000D00E03EB0E0201F0070312F80CCC06FAEF
:1008500003F31CEA030F1CD03D18890995F93050A9
:1008600057F82590B9F1000F00F0E880032900F057
:10087000E8804FEA800E0EF1A04E12F8145CDEF80C
:1008800000271D40C2F3014240F0B580032A00F06A
:10089000A281002594F95110481C2FD0C9B221F033
:1008A000C00006AB4FEAD00E03EB0E0201F00703C7
:1008B00012F80CCC06FA03F31CEA030F1ED007EB68
:1008C000000C89099CF930C057F82C90B9F1000F41
:1008D00000F0C680032900F0C6804FEA800E0EF1BA
:1008E000A04E12F814CCDEF800271CEA030FC2F366
:1008F000014240F08D80032A00F0928194F9521059
:100900004A1C2ED0C9B221F0C00006AB4FEAD00E6F
:1009100003EB0E0201F0070312F80CCC06FA03F306
:100920001CEA030F1DD007EB000C89099CF930C0AD
:1009300057F82C90B9F1000F00F08980032900F0DE
:1009400088804FEA800E0EF1A04E12F814CCDEF82B
:1009500000271CEA030FC2F3014265D1032A00F00D
:100960004C8194F953104B1C2CD0C9B221F0C0001B
:1009700006AB4FEAD00E03EB0E0201F0070312F8AC
:100980000CCC06FA03F31CEA030F1BD007EB000C98
:1009900089099CF930C057F82C90B9F1000F69D043
:1009A000032969D04FEA800E0EF1A04E12F814CC44
:1009B000DEF800271CEA030FC2F3014211D1032A1B
:1009C00000F0F080002D3FF425AF4FF0A043019AD6
:1009D000D3F8103593423FF41DAF029A019303926E
:1009E00025E7022AEED1032900F02D81B9F1000F8D
:1009F000E8D0C847E6E7022A7FF44BAF032900F0AE
:100A00002B810025B9F1000F3FF444AFC84741E7FF
:100A1000022A7FF473AF032900F01881B9F1000FA7
:100A20003FF46CAFC84769E7022A9AD1032900F066
:100A30001081B9F1000F94D0C84792E703297FF4E1
:100A400028AF18F80E501D4308F80E5011E703297F
:100A500087D118F80EC04CEA030C08F80EC070E7F6
:100A600003297FF44BAF18F80EC04CEA030C08F8CA
:100A70000EC032E70329A5D118F80EC04CEA030CCA
:100A800008F80EC08EE700221A601B6805934FF02D
:100A9000A043059AD3F81035019346F0004699E635
:100AA0000061004004610040086100400C610040AA
:100AB0001061004014610040186100401C6100405A
:100AC0007C6100402C220020654AD2F804231706DE
:100AD0007FF57BAE00221A601B680493049B46F0EE
:100AE000800672E65E4AD2F8042352067FF568AEAD
:100AF00000221A601B680493049B46F040065FE6E0
:100B0000574AD2F8042391067FF555AE00221A60A9
:100B10001B680493049B46F020064CE6504AD2F82A
:100B20000423D0067FF542AE00221A601B680493AE
:100B3000049B46F0100639E6494AD2F8042314070C
:100B40007FF52FAE00221A601B680493049B46F0C9
:100B5000080626E6424AD2F8042355077FF51CAE64
:100B600000221A601B680493049B46F0040613E6F7
:100B70003B4AD2F8042397077FF509AE00221A609A
:100B80001B680493049B46F0020600E63449D1F842
:100B9000041311F001011CD01E601B680493049B18
:100BA0001646EFE503297FF421AF4FF40033DEF85A
:100BB000002722F44032CEF80027DEF80027013566
:100BC0001343EDB2CEF80037B9F1000F7FF411AF47
:100BD000FBE60E46D6E503297FF414AF4FF400334D
:100BE000DEF8002722F44032CEF80027DEF8002796
:100BF0001343CEF80037012504E703297FF419AF2A
:100C00004FF40033DEF8002722F44032CEF80027FC
:100C1000DEF8002701351343EDB2CEF8003708E7C0
:100C200003297FF4FBAE4FF40033DEF8002722F4F3
:100C30004032CEF80027DEF8002701351343EDB22D
:100C4000CEF80037EAE64FF44033B0E74FF44033D4
:100C5000EBE74FF44033D5E74FF44033C0E700BF34
:100C60000060004070B59B4C237F8EB0002B75D187
:100C7000994AD2F80413890548D4974BD3F8042332
:100C8000520704D5D3F80821002A40F0CA80924BBD
:100C9000D3F81C21C2B1A28AA07D8E4992B28242B1
:100CA0004FF00002C3F81C2180F0A980D3F81C216A
:100CB0000692069A888A8A8A8D6880B20132285CF8
:100CC00092B28A82C3F81C05834BD3F84421DAB16F
:100CD0000022C3F84421D3F84411A27E0491049960
:100CE000002A40F08980E27D7A4B6AB10022587E6A
:100CF000D968DA7501228DF830000B918DF8282023
:100D00000AA893E8060090470EB070BDD2F82411EF
:100D10000029B2D0C2F82431D2F82411A37E079161
:100D20004FF401710798C2F808130BB901235360FF
:100D3000694A02238DF82830D2F88034C2F8803412
:100D4000E07DE2680D9300238DF83000E375237693
:100D500021680B9263680AA8984798E75E4BD3F81E
:100D60002421002A40F09380D3F8101161B1C3F818
:100D70001021D3F8101103910399D3F83C15E07DAD
:100D8000C9B2884200F0AA80534BD3F84421B2B1D3
:100D90000022C3F84421D3F84411E07D0191019968
:100DA0004C4960B1D3F83C35C8688DF83030012328
:100DB000CA750B908DF828300AA80AC99847464B87
:100DC000D3F82021002A9FD00022C3F82021D3F895
:100DD0002011A07D009100993E49002894D0D3F8BD
:100DE0004C058B688DF830008A750B938DF82820A0
:100DF0000AC90AA8984787E701221A6073E7D3F85F
:100E00001C310593059B00283FF45EAF8B688DF87D
:100E100030008A750B938DF828200AC90AA89847D4
:100E200052E7E17D2B4A002970D00021C3F8081158
:100E3000D3F8081108910899D068517ED3F8183575
:100E40004354537ED17D0133DBB25376627E214B16
:100E50008A427FF41CAF1A7E002A6DD19B7E13B9A3
:100E60001D4B01225A601C4AE06863684FF401710F
:100E7000C2F80813627E8DF83020002501220B9005
:100E80002168E5758DF828200AA89847FFE600221A
:100E9000C3F82421D3F82411029102218DF82810DF
:100EA0000299D3F88014C3F880140D91D3F83C153F
:100EB000E368E27522768DF830100B932168636841
:100EC0000AA89847044BD3F84421002A3FF477AF8F
:100ED0005EE700BF8422002000200040217EF1B1A7
:100EE000D3F80062E17526F02001E568C3F800122E
:100EF00026698DF8300001238DF82830227621688C
:100F00000B95E66063680AA898473DE7C3F80811A7
:100F1000D3F808210992099AD3F8183596E7E268C0
:100F2000E17501238DF830008DF828300B9294E89C
:100F30000A000AA8984727E7DE685D7E1869DA7517
:100F400001210022D8601A765A768DF828100B9667
:100F50008DF8305093E806000AA8904797E600BF46
:100F600073DF704776DF70477ADF70477CDF70474A
:100F70007FDF7047A8DF7047A9DF7047ADDF70479C
:100F800067DF70473EDF7047FEF7F0BB022009B90C
:100F9000FFF76EB9FFF760B908B5037803B108BD74
:100FA000054B3B211888FFF7DDFF0028F7D0BDE88F
:100FB0000840FEF7DBBB00BF902100200D280ED1BA
:100FC00008B5084801F050FA30F0080209D043F2A1
:100FD0000202904205D0BDE80840FEF7C7BBFEF70D
:100FE000C5BB08BDA422002010B50388023B84B015
:100FF0000446542B51D8DFE803F095505050505020
:1010000050505050505050509C2B506250505050A7
:1010100050505050505050505050505050505050D0
:1010200050505050505050505050505050505050C0
:1010300050505059505050505050505050505050A7
:101040005050505050505050506C8450508E590059
:101050000120FFF70DF93E4B4FF6FF721A80FEF7A5
:101060006BFB08B1FEF782FB102268460021FEF7F9
:1010700069FA0023402268468DF8003001938DF80C
:101080000830ADF80C30ADF80A20FFF769FF08B161
:10109000FEF76CFB0020FFF7DFF8204600F0D8FEDB
:1010A00021462C4801F0D2F804B010BD13218088ED
:1010B000FFF758FF0028F0D0FEF758FBEDE7244A71
:1010C0000023108885211A46FFF752FF0028E4D03C
:1010D000F2E78279002AE0D0837B043B022BDCD844
:1010E000022A0CBF022201224FF4C1736946808894
:1010F0008DF80020ADF80430FFF73CFF0028CCD07D
:10110000DAE7134A0023108819461A46FFF734FF1E
:101110000028C2D0D0E717218088FFF72FFF0028D2
:10112000BBD0C9E700218088FFF72AFF0028B4D090
:10113000C2E70120FFF790F80020FFF799F8044B71
:10114000A2881A80FEF7E2FA0028A6D0B4E700BF12
:1011500090210020A422002070B5A0B0FFF794F8E1
:1011600000231846654A0521FEF7AEFE08B1FEF7DA
:10117000FDFA40F2666201216148FEF76FFA08B19C
:10118000FEF7F4FA5F4B604918680290002302A84A
:10119000502201F0F7F908B1FEF7E8FA11AA01218F
:1011A000002001F05BFA08B1FEF7E0FA172311A85E
:1011B000ADF8543001F06AFA08B1FEF7D7FA534897
:1011C00001F02AFA08B1FEF7D1FA9DF8083050482C
:1011D000012262F3030362F307138DF8083001F074
:1011E00070FA4B4982B202A8FFF7C0FE08B1FEF7C1
:1011F000BDFA0822002111A8FEF7A4F95024A0216D
:1012000000224FF4C87311A8ADF84440ADF8461061
:10121000ADF84820ADF84A30FFF7A6FE08B1FEF75A
:10122000A5FA3C4B3C48119311A901F031F808B1E3
:10123000FEF79CFA384A927C8DF8062041F223533F
:101240003C22002102A8ADF804300124FEF77AF90F
:101250000225062300213C2211A88DF80B308DF8C1
:1012600008508DF80A40FEF76DF901AB02A811A9EC
:10127000ADF85440169300F0B7FA08B1FEF776FACD
:101280001C22002111A8FEF75DF94FF4202600234F
:101290004FF4203503242149214A119311A8ADF8B8
:1012A00052308DF85430129613958DF850401691A7
:1012B000179200F093FD08B1FEF758FA10220021B2
:1012C00011A8FEF73FF90023402211A88DF8443001
:1012D00012938DF84C30ADF85030ADF84E20FFF73A
:1012E0003FFE08B1FEF742FA0020FEF7B5FFFFF718
:1012F00049FE0028FBD0FEF739FAF8E7C0220020AB
:1013000088210020F826020038230020E90F02007F
:10131000FC2602008D0F0200A4220020990F02007B
:10132000890F02006DDF704772DF704779DF704709
:101330007DDF704765DF70472DE9F04F83B004888B
:101340000C9FBDF83490B7F800A0002C4CD0984604
:10135000002316468B4605461C4603E02A880134C6
:10136000A24224DD6A6852F82400019000220DF1A7
:10137000030101A8FFF7DEFF10BB9DF80320B24276
:10138000ECD103B33A8893194B4518DC42440DF174
:10139000030101A80123FFF7CDFF88B93A889DF822
:1013A00003100A443A802A880134A242DADCDBB115
:1013B0003B88013BCAEB03039BB2FF2B12D90C20E5
:1013C00003B0BDE8F08F3B885A1C334402334B45D1
:1013D00092B2F4DC3A8008F802B03A88013292B254
:1013E0003A80D3E708F80A30002003B0BDE8F08F58
:1013F0002DE9F04700231788138090F82D3084B032
:10140000144605460E46002B49D1AA78002A70D111
:10141000EA78002A2ED16A68A2B1D91CB94225D82F
:10142000022192F90020F154238801339BB20A2152
:101430002380F154238801339BB22380F254238804
:10144000013323802B89002B40F02A812B8A002B2B
:1014500040F03F812B8B002B40F054812A6A002AF8
:1014600000F0A78021888B1DBB4262D90C2004B0FC
:10147000BDE8F087D91CB942F8D80221F15423887D
:1014800001339BB201212380F15423880B449BB28A
:101490002380F25423880B449BB22380BBE7082FA0
:1014A000E4D902A8FFF73EFF0028E0D11388082204
:1014B000CA54238801339BB21B222380CA5420883C
:1014C000013080B22080062208440DF1090101F0AC
:1014D000EDF823889DF8082006339BB212F0FE0237
:1014E00018BF01222380F254238801339BB223804A
:1014F0008BE70433BB42B9D802A8FFF717FF0028D7
:10150000B5D12388BDF808200321F1542388013385
:101510009BB219212380F154238801339BB2F11827
:101520002380F254120A4A70238802339BB223802C
:101530006EE71388052B40F2AF806FF4486803EB29
:10154000080080B24FF27D3E704540F2A580508881
:10155000052840F2A1806FF4486C84441FFA8CFC8B
:10156000F44540F299804FF6FF7E734504D07045F4
:1015700002D0834200F29080052373542388013304
:101580009BB212212380F154238801339BB2238024
:101590001188F1543344090A5970238802339BB2ED
:1015A00023805288F2543344120A5A70238802333B
:1015B0002380D5F82480B8F1000F30D0B8F804208B
:1015C0002188131D0B44BB423FF650AF931CFE2BEA
:1015D0003FF64CAF03327254238801339BB2FF2293
:1015E0002380F254238801339BB22380B8F8002073
:1015F000F2543344120A5A702088023080B220809C
:10160000B8F804205AB1D8F80810002944D0304462
:1016100001F04CF8B8F8043022881344238095F880
:101620002C30002B40F08B80287800283FF41FAF2F
:101630002B88012B30D023889A1CBA423FF616AF74
:10164000012805D16978023119448F42FFF40EAFA9
:10165000023FFB1A04A99BB221F8083DB018FFF71E
:1016600067FE00287FF403AF2A78022A00F0B480D6
:10167000012A60D01A460821FE2A3FF6F7AE2388D9
:10168000551CF554238801339BB22380F1542388E1
:1016900001331A442280EAE6072004B0BDE8F0874F
:1016A00005F1080802228DE89000404611463346B5
:1016B000FFF742FE00287FF4DAAE8DE89000404646
:1016C000334610220621FFF737FE00287FF4CFAE05
:1016D000BCE605F110088DE8900040463346022232
:1016E0000321FFF729FE00287FF4C1AE8DE89000AA
:1016F0004046334610220721FFF71EFE00287FF4E4
:10170000B6AEA7E605F118088DE8900040463346CE
:1017100002221421FFF710FE00287FF4A8AE8DE806
:1017200090004046334610221521FFF705FE0028A1
:101730007FF49DAE92E66A7893429CD29AE7D5F800
:101740002880B8F1000FA7D0B8F804200232FE2A92
:101750003FF68CAE23884FF000094FF0160A013295
:10176000F254238801339BB2238006F803A0238818
:1017700001339BB22380B8F80020F2543344120A9C
:101780005A70238802339BB22380B8F80410F018F3
:101790000A4669B1D8F808301946002B3FF47CAFEF
:1017A00000F084FFB8F80430228813449BB22380F1
:1017B00009F1010995F82C205FFA89F94A4509EBEE
:1017C00049087FF631AFAA6A02EB8808B8F804200E
:1017D0000232FE2AC3D949E6BDF808209342FFF43D
:1017E00049AF092148E700BF2DE9F04395B01F2319
:1017F0000D46ADF80E300446002800F08480C27813
:1018000053077CD590F82D300021ADF80C10002B3B
:1018100040F0DD8183780CAF002B40F0198219462F
:10182000032014AE31445F1C023316FA87F74FF0E1
:10183000020E16FA83F601F840EC83B2012107F894
:10184000401CADF80C3006F8402C6668002E00F005
:101850008C80D81C1F2874D90C2015B0BDE8F083EB
:10186000A76A002F4BD0BA880232FE2AF4D8BDF8FE
:101870000C304FF0000804AE4FF016091AE000F0EB
:1018800015FFBDF80C20BB8894F82C1013449BB2B4
:10189000ADF80C3008F101085FFA88F8884508EBCC
:1018A000480780F0F080A26A02EB8707BA8802320C
:1018B000FE2AD1D80DF1500E9E44581C01320DF174
:1018C000500C0EF8402C1CFA80F09A1C92B200F8D2
:1018D000409CADF80C203888B0543244000A507057
:1018E0000433B7F804E09BB27246F018ADF80C3040
:1018F000BEF1000FCED0BB681946002BBFD1072028
:1019000015B0BDE8F083ADF80C00ADB1EB78002B5D
:10191000F5D128460CA90DF10E02FFF769FD00284C
:10192000EED19DF80E300CAA20469DF80C10FFF762
:10193000FBFC15B0BDE8F0832B46ADF80E502A46EF
:10194000F2E714AF591C9A1C17FA81F13B4417FABD
:1019500082F296F90060ADF80C0002270A2003F825
:10196000407C01F8400C02F8406C2389002B40F0C9
:101970008F80238A002B40F0AB80238B002B40F01C
:10198000C780226A002A42D0BDF80C30991D1F2959
:101990003FF662AF10880528B1D96FF4486C00EBB0
:1019A0000C06B6B24FF27D37BE42A8D95688052E36
:1019B000A5D96FF4486EB6441FFA8EFEBE459ED977
:1019C0004FF6FF77B84203D0BE4201D0B04296D85E
:1019D00014A8C7185E1C10FA86F64FF0050E981C66
:1019E00007F840EC80B2122706F8407CADF80C00F6
:1019F0001788ADF80C1004AE3118375404333F0A81
:101A00004F709BB25288F2543344120A5A70676A7C
:101A1000A7B3B888BDF80C30811C9A1C56181F2E2D
:101A20003FF61AAFFE293FF617AF14AE1E44591CFD
:101A30000DF1500E1EFA81F1033006F8400C92B2FF
:101A4000FF2001F8400CADF80C20398804AEB01826
:101A5000B154090A41700433BA8898B2ADF80C0049
:101A600062B1B96800293FF44AAF304400F01EFE6D
:101A7000BDF80C20BB881344ADF80C3094F82C1042
:101A800000297FF4EDAE2378002B61D104AC3CE754
:101A900003A904F1080704AE4FF01F0802220091C9
:101AA00038463346CDF804801146FFF745FC002840
:101AB0007FF426AF03AB0093CDF80480334638465D
:101AC00010220621FFF738FC00287FF419AF50E7F9
:101AD00003AA04F1100704AE4FF01F080092384625
:101AE0003346CDF8048002220321FFF725FC0028AD
:101AF0007FF406AF03AB0093CDF80480334638463D
:101B000010220721FFF718FC00287FF4F9AE34E714
:101B100003AA04F1180704AE4FF01F0800923846DC
:101B20003346CDF8048002221421FFF705FC00287B
:101B30007FF4E6AE03AB0093CDF80480334638461D
:101B400010221521FFF7F8FB00287FF4D9AE18E723
:101B50002288012A3FF4D3AEBDF80C20901C1F2828
:101B60003FF67AAE012B05D16378134402331F2B65
:101B70003FF672AEC2F11D0314A99BB204AE21F868
:101B8000203D3044FFF7D4FB00287FF4B9AE227823
:101B9000022A00F08780012A00F08B80ADF83030F7
:101BA0001A460820FE2A3FF657AEBDF80C3014AC9A
:101BB000591CE71814FA81F102331344013207F873
:101BC000402C3446ADF80C3001F8400C9DE60CAFCB
:101BD0003846FFF7A7FB00287FF492AEBDF80C3023
:101BE00014A903F1010E9A1C11FA8EFE0B4492B255
:101BF00004AEB01808211B2603F8401CADF80C20D9
:101C00000DF1310106220EF8406C00F04FFDBDF8D9
:101C10000C209DF83010931D11F0FE019BB23BD1BA
:101C200014A8034403F8401CD31DA2789BB2ADF85E
:101C30000C304AB9E278002A3FF407AED81C1F28BE
:101C400019463FF609AEECE504331F2B3FF604AE10
:101C50003846FFF76BFB00287FF452AEBDF80C301E
:101C6000BDF83010E2785F1C14AE16FA87F71E44F8
:101C7000981C4FF0030E06F840EC80B204AE4FF013
:101C8000190E07F840EC0433371831549BB2090A97
:101C9000ADF80C307970CEE714A90B44012103F89C
:101CA000401CC1E7BDF830209342FFF477AF092014
:101CB00078E762789342FFF471AFADF830200820E6
:101CC00070E700BF75DF704776DF70477ADF7047D7
:101CD0007BDF7047184B18884FF6FF7398422AD065
:101CE00010B5164A164C1378217B0133DBB29942AA
:101CF00082B013700CD2237C002111708BB9636900
:101D000023B102A8002200F8042D984702B010BDAC
:101D10000C49FFF7D7FF0028F8D0A369002BF4D1B6
:101D2000F4E73B21FFF7D0FF0028E8D0A369002BA0
:101D3000E5D09847E3E77047D423002094230020A0
:101D400098230020D823002070B51E4B1E4A5B88C4
:101D50001188994282B00FD852889A420CD31B4BFB
:101D60005B6923B102A8012200F8042D9847184CA2
:101D70000023237002B070BD154C227862B1134B62
:101D80005B69002BF4D002A8002200F8042D9847CC
:101D90000023237002B070BD0C4D0E4869680678B0
:101DA000AB680D48002E18BF1946FEF77FF90028D2
:101DB000DED0AB69002BDBD098470023237002B044
:101DC00070BD00BF8C230020D82300209823002062
:101DD0008823002094230020B4230020F8B5054672
:101DE0000FCD144C144F0FC4064695E8070000238E
:101DF00084E807003B70B6B13068104B716803C3CC
:101E0000A3F10800FFF762FF90B90D4D0D4C0E4A8B
:101E10000E4800234FF6FF762E8023701946BDE84A
:101E2000F840FEF731B90548FFF752FF0028ECD023
:101E3000F8BD00BF9823002088230020D82300206D
:101E4000D423002094230020D51C02000C2702007C
:101E500070B50388112B27D012D9122B07D0502B25
:101E600047D1244CC288E3899A4230D070BD0830F3
:101E700003C8214B83E80300BDE87040FFF764BF4F
:101E8000102B35D11D491B4C1B4B1D4DE48900F116
:101E900010028088088092E80300002283E8030093
:101EA0002A70002CE8D070BD1449154B15484FF628
:101EB000FF7400220C801A70FEF750F90028D5D06C
:101EC0000C4B9B69002BD1D0BDE870401847038AAA
:101ED000022BCBD1123000F017F80028CCD10948E2
:101EE000FEF73CF90028C1D0A369002BECD1BDE777
:101EF00070BD70BD982300208C230020D4230020C7
:101F000094230020B4230020007800F001007047E3
:101F10000649074A074B9B1A03DD043BC858D050BB
:101F2000FBDC00F013F8FDF799FA00002C27020003
:101F300028210020A4210020FEE7FEE7FEE7FEE7BF
:101F4000FEE7FEE7FEE7FEE7FEE7FEE7F0B4A64B9E
:101F50001B78062B1BD0A54AD2F8883043F47003B7
:101F6000C2F88830BFF34F8FBFF36F8F4FF010234D
:101F7000D3F80022002AC0F20581D3F80432002BE6
:101F8000C0F200819A4B9B4A1A60F0BC70479A4B92
:101F90001B681E07DFD1994B1B6803F0F003302B41
:101FA00002D1974B974A1A60944B1B6803F0F002DA
:101FB000302A00F0D68003F0E003402B00F0D180FF
:101FC0008E4B1B6803F0F003302B00F0BB808B4B73
:101FD0001B6803F0F002302A00F0A08003F0E00359
:101FE000402B00F09B80854B1B6803F0F003302BE7
:101FF00000F08680814B1B6803F0F003302B68D023
:102000007E4B1B6803F0F003502B10D07B4B1B68FA
:1020100003F0F002302A03D003F0E003402B9AD102
:10202000794B7A4A1B6803F04F03136093E74FF034
:102030008052774BD2F80414C3F82015D2F8081454
:10204000C3F82415D2F80C14C3F82815D2F81014CC
:10205000C3F82C15D2F81414C3F83015D2F818149C
:10206000C3F83415D2F81C14C3F84015D2F8201464
:10207000C3F84415D2F82414C3F84815D2F828142C
:10208000C3F84C15D2F82C14C3F85015D2F83014FC
:10209000C3F85415D2F83414C3F86015D2F83814C4
:1020A000C3F86415D2F83C14C3F86815D2F840148C
:1020B000C3F86C15D2F844244B49C3F870250A784C
:1020C000062A7FF448AF4C4B1B681B077FF443AFD5
:1020D0009CE7454B4F491B784F4D5048504A0527C8
:1020E0000F60012600243F21062B2E600460116042
:1020F0007FF431AF404B1B681A077FF42CAF7FE7AA
:10210000394B484A1B780321062B11607FF423AF1B
:10211000394B1B6819077FF41EAF6BE7324B1B78F6
:102120004FF080420021062BC2F80C11C2F81011AA
:10213000C2F838157FF40FAF2F4B1B6818077FF4D8
:102140000AAF50E73849284ACB68127823F08073E9
:10215000062ACB60B4D1284B1B681C077FF4FBAE6A
:1021600035E7324A204B12681B783149C2F34232BC
:10217000062B0A607FF4EFAE1F4B1B681D077FF430
:10218000EAAE1DE72B4B0122C3F80425D3F8002447
:10219000002AFBD04FF0102315222649C3F8002255
:1021A000D1F80034002BFBD04FF010231522214929
:1021B000C3F80422D1F800241E4B002AFAD00022D2
:1021C000C3F80425D3F80024002AFBD0BFF34F8FB7
:1021D0000649194BCA6802F4E0621343CB60BFF3AF
:1021E0004F8F00BFFDE700BFE00F00F000ED00E003
:1021F000942100200090D003E40F00F0E80F00F0DD
:1022000074C007400DF0ADBA58020010E40E004053
:1022100000C000401056004088560040185600404C
:1022200014560040A0050040F0ED00E0440200100C
:102230003C05004000E001400400FA05A0DF7047C3
:10224000A2DF7047A6DF704763DF70470B88112B52
:102250000FD0502B05D0102B00D070478B88838275
:10226000704710B44488CB889C4206D05DF8044B7C
:1022700070474FF6FF73838270470B8A012BF5D1AD
:102280008369002BF2D0897C5DF8044B184700BFAE
:10229000F0B5744B4FF6FF728282054695B00C681C
:1022A000186859689A68DB68AC6104AC0FC405F122
:1022B000120104A8FFF7C8FF18B10446204615B064
:1022C000F0BD14A941F2235321F8483D2A46AB7CC6
:1022D0008DF80A300120FFF7B1FF04460028EDD148
:1022E000214603226846FDF72DF99DF800709DF800
:1022F00001309DF802E0012666F3030766F303034D
:1023000066F3071366F3420E214666F307171C2295
:102310000DA88DF800708DF801308DF802E0FDF702
:1023200011F99DF8343095F812E00E9443F0120341
:10233000214641F22457032201A8109411941394CA
:102340008DF834308DF80EE0ADF80C70CDF848D033
:10235000FDF7F8F89DF806309DF804E09DF805704B
:1023600066F3420364F3C30364F3041364F30307E3
:1023700066F3030E64F3000366F3071E64F30717A6
:102380002146142208A88DF806308DF804E08DF857
:102390000570FDF7D7F801AFADF82A400C9408AAF4
:1023A00003AC0DA905F10A03288808940997ADF834
:1023B0002860ADF82C60FFF743FF044600287FF447
:1023C0007DAF01461C220DA8FDF7BCF89DF8343006
:1023D000A87C8DF80E0043F00A03214641F22557F0
:1023E000032201A80E9410941194129413948DF862
:1023F0003430ADF80C70FDF7A5F89DF806309DF867
:1024000004009DF8057066F3420364F3C30366F3AA
:10241000030064F3041366F3071066F3030764F321
:102420000003214614228DF8040066F3071708A85C
:102430008DF806308DF80570FDF784F8AB1C288800
:10244000ADF82A4003AD089508AA0DA901AD0C947A
:102450000995ADF82860ADF82C60FFF7F1FE044651
:102460002CE700BF1027020070B588B005468DF834
:102470000710012404A810220021ADF80E40FDF73A
:1024800061F86E89A88A8DF812400DF107020DF1EE
:102490000E0304A9ADF8106007920693FFF7D2FE71
:1024A00008B070BD48DF704710DF704760DF7047CD
:1024B00061DF7047FDF76AB92DE9F047DFF8B090AA
:1024C000284ED9F80040DFF8AC80274FB4FA84F4E6
:1024D00082B064090025B5B93378DFF888A07BB9EC
:1024E00001A8FFF7DFFF052834D020B3FDF73EF940
:1024F0006CB13378DFF86CA001240025002BEFD0FD
:1025000002B0BDE8F087002CFAD1DFF858A09AF8A5
:102510000030002BF4D102A93A68B8F8003021F855
:10252000043D1046FFF7C4FF052817D068B1FDF73A
:102530001DF90024CFE70198FDF700FF0B4B1B6846
:10254000002BD5D001989847D2E71046D9F8003033
:102550009847EEE7002CD3D10125D8E7002DC8D04D
:10256000CEE700BFE0230020E4230020E823002082
:10257000EC230020E2230020014B1878704700BFB5
:10258000E123002011B111F0030F01D007207047A3
:10259000F8B51A4F1A4E1B4D1B4C396032802B6018
:1025A0002368DB0708D50123C4F880301749FFF7FB
:1025B0007BFF30B12360F8BD1449FFF775FF00B110
:1025C000F8BD134B01221A70FDF7C8FE0E4A92F8AF
:1025D0001633C3F34113012B0CD90E4B986818B96D
:1025E0004FF480031360F8BD1A6842F480021A6049
:1025F0000020F8BD42F20200F8BD00BFE423002035
:10260000E2230020F023002000E100E0B5240200D6
:10261000E1230020F4230020034618B1024A0020E1
:10262000136070470E207047EC23002008B5094B5B
:102630001B6833B1984700B908BDBDE80840FDF7F5
:1026400095B8054B1B78002BF6D0BDE80840FFF786
:1026500033BF00BFF0230020E123002070B51446F3
:1026600005460E46104600211C22FCF76BFF227D1A
:102670002672002363F30002012165722275A361B3
:10268000218005B1A172002070BD00BF00B583B0EC
:10269000054B019302A9019B41F8083DFFF706FF96
:1026A000019B03B05DF804FB2821002010B5431EF8
:1026B0000A44914204D011F8014B03F8014FF8E7A6
:1026C00010BD034613F8012B002AFBD1181A01385C
:1026D00070470000F8B500BFF8BC08BC9E467047C4
:1026E000F8B500BFF8BC08BC9E4670472821002002
:1026F000CC21002011121314010000074E6F7264E8
:1027000069635F426C696E6B79000000B42300203E
:1027100023D1BCEA5F782315DEEF1212000000001F
:0427200000000000B5
:0827240038CDFF7F0100000029
:10272C00000000000000000000000000000000009D
:10273C00000000000000000000000000000000008D
:10274C00000000000000000000000000000000007D
:10275C00000000000000000000000000000000006D
:10276C00000000000000000000000000000000005D
:10277C00000000000000000000000000000000004D
:10278C000D000300BD0F0200FFFF00000090D003FE
:0C279C0025F4010001F401000000000021
:0400000320001F11A9
:00000001FF
