:020000021000EC
:10F000000000012051010200790102007B01020091
:10F010007D0102007F01020081010200000000006A
:10F02000000000000000000000000000830102005A
:10F030008501020000000000870102008901020032
:10F0400019FD01008B010200B1FD01008B010200DE
:10F050008B0102008B0102008B0102008B01020078
:10F060008B0102008B0102008B0102008B01020068
:10F070008B0102008B0102008B0102008B01020058
:10F080008B0102009DF501008B0102008B01020043
:10F0900061F601008B010200450502008B010200B0
:10F0A0008B0102008B0102008B0102008B01020028
:10F0B0008B0102008B010200000000000000000034
:10F0C0008B0102008B0102008B0102008B01020008
:10F0D0008B0102008B0102008B0102000000000086
:10F0E0000000000000000000000000000000000020
:10F0F0000000000000000000000000000000000010
:10F1000000000000000000000000000000000000FF
:10F1100000000000000000000000000000000000EF
:10F4000010B5054C237833B9044B13B10448AFF35E
:10F4100000800123237010BD301A0020000000007E
:10F4200094050200084B10B51BB108490848AFF31A
:10F4300000800848036803B910BD074B002BFBD0C0
:10F44000BDE81040184700BF00000000341A00203B
:10F45000940502002C1A002000000000154B002B20
:10F4600008BF134B9D46A3F5803A00218B460F46FB
:10F470001348144A121A00F065F80F4B002B00D005
:10F4800098470E4B002B00D0984700200021040025
:10F490000D000D48002802D00C48AFF3008000F0AA
:10F4A0002BF82000290000F001FE00F011F800BF49
:10F4B0000000080000000120000000000000000023
:10F4C000301A0020B81A00200000000000000000E0
:10F4D00008B5074B044613B10021AFF30080054B7C
:10F4E0001868836A03B19847204600F033F800BFDC
:10F4F000000000008C05020070B50E4B0E4CE41AA3
:10F50000A41000251E46A54204D056F82530984781
:10F510000135F8E701F02EF8084C094BE41AA41065
:10F5200000251E46A54204D056F8253098470135DF
:10F53000F8E770BD241A0020241A0020281A0020A1
:10F54000241A002002440346934202D003F8011B10
:10F55000FAE77047FEE700BF00B585B000230390CF
:10F56000194601AA44F20100ADF80430029300F0FC
:10F5700003F805B05DF804FBBFF34F8F0549064B58
:10F58000CA6802F4E0621343CB60BFF34F8F00BF41
:10F59000FDE700BF00ED00E00400FA052DE9F843A7
:10F5A000274A284B0025C2F84051C2F84451C2F8FE
:10F5B0004851C2F84C51C2F80051C2F804511B68BE
:10F5C0001BB32149D2F804250C68204F141B1A687C
:10F5D00024F07F44A242A84609D8197CDE69A41A07
:10F5E0001544A1B91EB133461A68A242F5D9184B89
:10F5F00018491A780B789A421BD01749174A41F8D4
:10F6000023504FF48013C2F80031BDE8F883D3F8DB
:10F61000149083F810803A689B69484619462AB1CD
:10F6200090470028DED0FFF797FFDBE71846C84772
:10F63000D8E7531CDBB2022B08BF00230B70DCE7BA
:10F6400000100140501A00204C1A0020541A0020CB
:10F65000581A0020591A0020641A002000E100E026
:10F660002DE9F04FA44AA54913780978A44889B038
:10F6700000680090994200F0EB800133DBB2022B6E
:10F6800008BF002313709F4A52F82360009B9C4AD6
:10F69000334423F07F4313604FF0010E9A4B0796DB
:10F6A00093F800A0994BCDF818A0D3F80090964B92
:10F6B0005B7801931D46944BD3F804B09B7802937A
:10F6C0001C46934B1B7804938D4B00271B680393B8
:10F6D00051464A464B460597BC4638462646B846EC
:10F6E000A9421AD001EB410401311BF83470C9B2B0
:10F6F000B14208BF0021022F0BEBC40400F083804D
:10F70000032FEDD1002BEBD0DA6918741346002AD1
:10F71000FAD1A9424FF0010CE4D1DDF818A0079E00
:10F720004746BCF1000F40F0A380059A12B1744A1D
:10F7300003991160002F40F09C82BEF1000F40F051
:10F74000C681B9EB030218BF0122079205937546E3
:10F750001E466B4ACDF810B0D2F800C06B4ADFF8F5
:10F76000B891D646D2F800A0694A002312780093D7
:10F770001F4606924FF001089B463DB36A68A96890
:10F780002C46ED69CCEB020323F07F434B4572D846
:10F790000B4423606760A76084F81080E761002E47
:10F7A00000F08B80316899427ED2304603E01168C8
:10F7B000994269D21046C2695B1A002AF7D12360C8
:10F7C000E2613346C4611E46002DD7D1019B9E45A0
:10F7D00000F0A4800EEB4E03049911F8332003923D
:10F7E00010460EF1010E029A5FFA8EFE724508BFB6
:10F7F0004FF0000E012801EBC30364D03346012211
:10F8000000921E46E0E76468002B3FF469AF9C421B
:10F810009A4601D115E0BA46DAF81C70002F3FF481
:10F820005FAFBC42F7D1BA450CD0FC693F68CAF85B
:10F830001C40002C3FF454AF23683B442360134624
:10F840004EE71F46DA6932B113464FF0010CECE780
:10F850000026B64622E72F4B4FF00108C3F8088078
:10F86000C44613460392CDF81080CDF81480DCE72F
:10F8700026490A6059E7C2EB0C0222F07F428A4215
:10F8800009D28B1A236085E7C91A11602360E261EF
:10F890003346C46197E727606760A76084F81080EB
:10F8A000E76156B131680023CB1A33602346E66125
:10F8B000A2464FF0010B1E4686E72346A2464FF0B4
:10F8C000010B1E4680E75C68227C009282B99A6830
:10F8D0006260D968A1601869E0605B69A361069BFA
:10F8E000002B00F0F180009A626000932A4649E7FD
:10F8F00033461E4668E700BF581A0020591A0020F8
:10F900004C1A0020641A00205C1A0020501A0020B3
:10F910005A1A002000100140FEFF7F00009B5A464B
:10F92000002B40F0AE8112B1824BC3F800A0059BC2
:10F93000B34200F0BF80002E00F00A817E497F4C68
:10F94000D1F8040525783368CCEB000222F07F4221
:10F950000332002D50D17A4DDFF8ECE1794F4FF4AE
:10F960008036C1F84463C1F804634FF40036C5F82B
:10F9700080612E6001250D60DEF800602F2100BF40
:10F9800000BF00BF00BF00BF00BF00BF00BFBE423E
:10F990002FD000BF00BF00BF00BF00BF00BF00BF2F
:10F9A00000BF00BF00BF00BF00BF00BF00BF00BF5F
:10F9B00000BF00BF00BF00BF00BF00BF00BF00BF4F
:10F9C00000BF00BF00BF00BF00BF00BF00BF00BF3F
:10F9D00000BF00BF00BF00BF00BF00BF00BF00BF2F
:10F9E00000BF00BF00BF00BF00BF00BF00BF00BF1F
:10F9F00000BF0139C3D1257093422CBF9C4494446D
:10FA00004D492CF07F43C1F84035D1F80425121A36
:10FA10001B1A22F07F4223F07F4303329A424DD9D2
:10FA2000D1F80435484AC1F84035126845492F23BA
:10FA300000BF00BF00BF00BF00BF00BF00BF00BFCE
:10FA40008A422FD000BF00BF00BF00BF00BF00BF71
:10FA500000BF00BF00BF00BF00BF00BF00BF00BFAE
:10FA600000BF00BF00BF00BF00BF00BF00BF00BF9E
:10FA700000BF00BF00BF00BF00BF00BF00BF00BF8E
:10FA800000BF00BF00BF00BF00BF00BF00BF00BF7E
:10FA900000BF00BF00BF00BF00BF00BF00BF00BF6E
:10FAA00000BF00BF013BC3D1254B4FF40032C3F868
:10FAB000002103E0079B002B7FF43DAF234A002386
:10FAC000137009B0BDE8F08F039B00935AE6194A02
:10FAD000DDF800C017680020054601460446ABB1BA
:10FAE0001A68B2421BD8D8681C60B61A1144DA6989
:10FAF00038B10CEB010727F07F47DD6198605F604C
:10FB00001D46134617467046002BE9D1002840F0E9
:10FB1000BC800023059301230793059E19E6002866
:10FB200040F0AC80921B05931A6001230793059E59
:10FB30000FE600BF501A0020001001406C1A002090
:10FB400000E100E00024F400201A00205A1A0020EE
:10FB50004F4A504B504D51484FF480314FF40037CD
:10FB60000124C3F88070C2F848132F23C2F8081389
:10FB7000546029681D4600BF00BF00BF00BF00BF22
:10FB800000BF00BF00BF81422FD000BF00BF00BF39
:10FB900000BF00BF00BF00BF00BF00BF00BF00BF6D
:10FBA00000BF00BF00BF00BF00BF00BF00BF00BF5D
:10FBB00000BF00BF00BF00BF00BF00BF00BF00BF4D
:10FBC00000BF00BF00BF00BF00BF00BF00BF00BF3D
:10FBD00000BF00BF00BF00BF00BF00BF00BF00BF2D
:10FBE00000BF00BF00BF00BF00BF013DC3D1946094
:10FBF0002B4A166000BF00BF00BF00BF00BF00BFA0
:10FC000000BF00BF81422FD000BF00BF00BF00BFB8
:10FC100000BF00BF00BF00BF00BF00BF00BF00BFEC
:10FC200000BF00BF00BF00BF00BF00BF00BF00BFDC
:10FC300000BF00BF00BF00BF00BF00BF00BF00BFCC
:10FC400000BF00BF00BF00BF00BF00BF00BF00BFBC
:10FC500000BF00BF00BF00BF00BF00BF00BF00BFAC
:10FC600000BF00BF00BF00BF013BC3D10D4B1E70E2
:10FC700024E70D4A9DF8101011705EE50B490F60E6
:10FC800050E70B4B83F800E04DE6084B1F6040E760
:10FC90000010014000E100E0201A00200024F400E0
:10FCA0004C1A00206C1A00205A1A0020501A00200A
:10FCB0005C1A0020084B4FF0A0411B5CD1F80405F2
:10FCC000012202FA03F323EA00020340C1F80825E7
:10FCD000C1F80C35704700BF9005020030B44FF0FA
:10FCE000A04303224FF400354FF480244FF400204A
:10FCF0004FF48011C3F84427C3F84827C3F84C27B2
:10FD0000C3F85027C3F80855C3F80845C3F80805D9
:10FD1000C3F8081530BC704710B51A4B1A6882B08A
:10FD2000A2B100221A601B6800934FF080430122A9
:10FD3000154C0099C3F80823A368627033B10CCB4B
:10FD40000020A2609847A368002BF8D10F4B1A68D7
:10FD5000AAB100221A601B6801934FF0804302226F
:10FD6000094C0199C3F8082323690122A27033B119
:10FD70000CCB0120226198472369002BF8D102B0F7
:10FD800010BD00BF00010040701A002004010040B7
:10FD900058B910B5054CA36833B10CCB0020A26054
:10FDA0009847A368002BF8D110BD7047701A002047
:10FDB00070B59B4C237F8EB0002B75D1994AD2F839
:10FDC0000413890548D4974BD3F80423520704D56C
:10FDD000D3F80821002A40F0CA80924BD3F81C21A6
:10FDE000C2B1A28AA07D8E4992B282424FF0000237
:10FDF000C3F81C2180F0A980D3F81C210692069A32
:10FE0000888A8A8A8D6880B20132285C92B28A829E
:10FE1000C3F81C05834BD3F84421DAB10022C3F8A0
:10FE20004421D3F84411A27E04910499002A40F0A1
:10FE30008980E27D7A4B6AB10022587ED968DA75F2
:10FE400001228DF830000B918DF828200AA893E844
:10FE5000060090470EB070BDD2F824110029B2D030
:10FE6000C2F82431D2F82411A37E07914FF4017116
:10FE70000798C2F808130BB901235360694A02239B
:10FE80008DF82830D2F88034C2F88034E07DE26802
:10FE90000D9300238DF83000E375237621680B92D3
:10FEA00063680AA8984798E75E4BD3F82421002A94
:10FEB00040F09380D3F8101161B1C3F81021D3F84A
:10FEC000101103910399D3F83C15E07DC9B2884223
:10FED00000F0AA80534BD3F84421B2B10022C3F8FA
:10FEE0004421D3F84411E07D019101994C4960B15E
:10FEF000D3F83C35C8688DF830300123CA750B90B3
:10FF00008DF828300AA80AC99847464BD3F8202113
:10FF1000002A9FD00022C3F82021D3F82011A07D11
:10FF2000009100993E49002894D0D3F84C058B6885
:10FF30008DF830008A750B938DF828200AC90AA81D
:10FF4000984787E701221A6073E7D3F81C310593BD
:10FF5000059B00283FF45EAF8B688DF830008A75F2
:10FF60000B938DF828200AC90AA8984752E7E17D2B
:10FF70002B4A002970D00021C3F80811D3F80811CA
:10FF800008910899D068517ED3F818354354537EB0
:10FF9000D17D0133DBB25376627E214B8A427FF4FE
:10FFA0001CAF1A7E002A6DD19B7E13B91D4B012216
:10FFB0005A601C4AE06863684FF40171C2F8081384
:10FFC000627E8DF83020002501220B902168E575B6
:10FFD0008DF828200AA89847FFE60022C3F82421BC
:10FFE000D3F82411029102218DF828100299D3F838
:10FFF0008014C3F880140D91D3F83C15E368E275C2
:020000022000DC
:1000000022768DF830100B93216863680AA8984710
:10001000044BD3F84421002A3FF477AF5EE700BFDA
:10002000841A002000200040217EF1B1D3F8006244
:10003000E17526F02001E568C3F8001226698DF805
:10004000300001238DF82830227621680B95E66078
:1000500063680AA898473DE7C3F80811D3F8082158
:100060000992099AD3F8183596E7E268E1750123F9
:100070008DF830008DF828300B9294E80A000AA819
:10008000984727E7DE685D7E1869DA75012100224E
:10009000D8601A765A768DF828100B968DF8305065
:1000A00093E806000AA8904797E600BFF8B5FFF767
:1000B00015FE244F244E254D00242046FFF7FAFD5F
:1000C0003A682B4600BF00BF00BF00BF00BF00BFA3
:1000D00000BF00BFB2422FD000BF00BF00BF00BFB3
:1000E00000BF00BF00BF00BF00BF00BF00BF00BF18
:1000F00000BF00BF00BF00BF00BF00BF00BF00BF08
:1001000000BF00BF00BF00BF00BF00BF00BF00BFF7
:1001100000BF00BF00BF00BF00BF00BF00BF00BFE7
:1001200000BF00BF00BF00BF00BF00BF00BF00BFD7
:1001300000BF00BF00BF00BF013BC3D10134042C8E
:10014000BBD1B9E7201A00200024F40020A1070049
:100150000649074A074B9B1A03DD043BC858D05099
:10016000FBDC00F013F8FFF779F90000A0050200AE
:10017000C0190020301A0020FEE7FEE7FEE7FEE788
:10018000FEE7FEE7FEE7FEE7FEE7FEE7F0B4A64B7C
:100190001B78062B1BD0A54AD2F8883043F4700395
:1001A000C2F88830BFF34F8FBFF36F8F4FF010232B
:1001B000D3F80022002AC0F20581D3F80432002BC4
:1001C000C0F200819A4B9B4A1A60F0BC70479A4B70
:1001D0001B681E07DFD1994B1B6803F0F003302B1F
:1001E00002D1974B974A1A60944B1B6803F0F002B8
:1001F000302A00F0D68003F0E003402B00F0D180DD
:100200008E4B1B6803F0F003302B00F0BB808B4B50
:100210001B6803F0F002302A00F0A08003F0E00336
:10022000402B00F09B80854B1B6803F0F003302BC4
:1002300000F08680814B1B6803F0F003302B68D000
:100240007E4B1B6803F0F003502B10D07B4B1B68D8
:1002500003F0F002302A03D003F0E003402B9AD1E0
:10026000794B7A4A1B6803F04F03136093E74FF012
:100270008052774BD2F80414C3F82015D2F8081432
:10028000C3F82415D2F80C14C3F82815D2F81014AA
:10029000C3F82C15D2F81414C3F83015D2F818147A
:1002A000C3F83415D2F81C14C3F84015D2F8201442
:1002B000C3F84415D2F82414C3F84815D2F828140A
:1002C000C3F84C15D2F82C14C3F85015D2F83014DA
:1002D000C3F85415D2F83414C3F86015D2F83814A2
:1002E000C3F86415D2F83C14C3F86815D2F840146A
:1002F000C3F86C15D2F844244B49C3F870250A782A
:10030000062A7FF448AF4C4B1B681B077FF443AFB2
:100310009CE7454B4F491B784F4D5048504A0527A5
:100320000F60012600243F21062B2E60046011601F
:100330007FF431AF404B1B681A077FF42CAF7FE787
:10034000394B484A1B780321062B11607FF423AFF9
:10035000394B1B6819077FF41EAF6BE7324B1B78D4
:100360004FF080420021062BC2F80C11C2F8101188
:10037000C2F838157FF40FAF2F4B1B6818077FF4B6
:100380000AAF50E73849284ACB68127823F08073C7
:10039000062ACB60B4D1284B1B681C077FF4FBAE48
:1003A00035E7324A204B12681B783149C2F342329A
:1003B000062B0A607FF4EFAE1F4B1B681D077FF40E
:1003C000EAAE1DE72B4B0122C3F80425D3F8002425
:1003D000002AFBD04FF0102315222649C3F8002233
:1003E000D1F80034002BFBD04FF010231522214907
:1003F000C3F80422D1F800241E4B002AFAD00022B0
:10040000C3F80425D3F80024002AFBD0BFF34F8F94
:100410000649194BCA6802F4E0621343CB60BFF38C
:100420004F8F00BFFDE700BFE00F00F000ED00E0E0
:10043000201A00200090D003E40F00F0E80F00F035
:1004400074C007400DF0ADBA58020010E40E004031
:1004500000C000401056004088560040185600402A
:1004600014560040A0050040F0ED00E044020010EA
:100470003C05004000E001400400FA0548DF7047F9
:1004800061DF70472DE9F047DFF8B090284ED9F8CA
:100490000040DFF8AC80274FB4FA84F482B06409DE
:1004A0000025B5B93378DFF888A07BB901A8FFF73C
:1004B000E5FF052834D020B3FFF74EF86CB1337850
:1004C000DFF86CA001240025002BEFD002B0BDE8BE
:1004D000F087002CFAD1DFF858A09AF80030002BF2
:1004E000F4D102A93A68B8F8003021F8043D10466A
:1004F000FFF7C6FF052817D068B1FFF72DF80024D5
:10050000CFE70198FFF744FC0B4B1B68002BD5D0BD
:1005100001989847D2E71046D9F800309847EEE79F
:10052000002CD3D10125D8E7002DC8D0CEE700BFDD
:10053000A41A0020A81A0020AC1A0020B01A00202B
:10054000A61A002008B5094B1B6833B1984700B9BB
:1005500008BDBDE80840FEF7FFBF054B1B78002B28
:10056000F6D0BDE80840FFF78DBF00BFB41A0020E9
:10057000A51A0020F8B500BFF8BC08BC9E4670471D
:10058000F8B500BFF8BC08BC9E467047C0190020F3
:08059000111213140000000019
:08059800C4EEFF7F010000002A
:1005A000000000000000000000000000000000004B
:1005B000000000000000000000000000000000003B
:1005C000000000000000000000000000000000002B
:1005D000000000000000000000000000000000001B
:1005E000000000000000000000000000000000000B
:1005F00000000000000000000000000000000000FB
:100600000090D00325F4010001F401000000000077
:040000032000015187
:00000001FF
